:020000040800F2
:1028000000500020212A0008272A00082B2A00084F
:102810009D2A0008A12A0008E92A000800000000FB
:10282000000000000000000000000000312B000844
:10283000352B000800000000392B00083D2B000854
:102840004D2B00084D2B00084D2B00084D2B000888
:102850004D2B00084D2B00084D2B00084D2B000878
:102860004D2B00084D2B00084D2B00084D2B000868
:102870004D2B00084D2B00084D2B00084D2B000858
:102880004D2B00084D2B00084D2B00084D2B000848
:102890004D2B00084D2B00084D2B00084D2B000838
:1028A0004D2B00084D2B00084D2B00084D2B000828
:1028B0004D2B00084D2B00084D2B00084D2B000818
:1028C0004D2B00084D2B00084D2B00084D2B000808
:1028D0004D2B00084D2B00084D2B00084D2B0008F8
:1028E0004D2B00084D2B00084D2B00080000000068
:1028F00000000000000000000000000000000000D8
:1029000000000000000000005FF808F100B583B08F
:1029100000F0AAF9304B314A1360314A1360314B51
:10292000314A32498B4204D21168196004330432AF
:10293000F7E72A4B1A682E4B9A4200D0FEE7284B45
:102940001A682C4B9A42F9D1234B2B4A13602B4A1D
:1029500013602B4B02E000221A600433294A934291
:10296000F9D3254B1B6813B9244B1B6803B1FEE751
:1029700000F086F9694601A800F022F9224C234BA9
:10298000E41AA4100025AC4214DC214C214BE41ABB
:10299000A4100025AC4213DC0099019800F0C2FBA2
:1029A00005461D4C1D4BE41AA410002C0EDC2846D5
:1029B00000F0E2F8154B53F8253098470135E2E76F
:1029C000144B53F8253098470135E3E7013C134B8E
:1029D00053F824309847E8E7BABADECA000000206E
:1029E0008400002000000020243B00088800002014
:1029F0007856341232547698880000202001002046
:102A00008800002024010020782B0008782B000883
:102A1000782B0008782B0008782B0008782B00080A
:102A200008B5FFF773FF00BEFEE71EF0040F0CBFF2
:102A3000EFF30880EFF309807146414A10472DE912
:102A4000F04182B004468846124B5E6B9F6B9D6AD4
:102A50001B6B13F0020F03D00E4BDB6A002B0CDB59
:102A60000D4800F0B5F8CDF800803B4632462946C7
:102A7000204600F009F900BEFEE74BF6AB6100F01E
:102A80007DF90028ECD0034B4FF00042DA6202B02F
:102A9000BDE8F08100ED00E0C43A000800BEFEE7AA
:102AA0001EF0040F0CBFEFF30880EFF309807146AE
:102AB000244A10472DE9F04182B004468846084B6D
:102AC0005E6B9F6B9D6A074800F082F8CDF800802E
:102AD0003B4632462946204600F0D6F800BEFEE7C7
:102AE00000ED00E0D43A00081EF0040F0CBFEFF335
:102AF0000880EFF309807146134A10472DE9F04131
:102B000082B004468846084B5E6B9F6B9D6A0748FF
:102B100000F05EF8CDF800803B463246294620465C
:102B200000F0B2F800BEFEE700ED00E0E03A000879
:102B300000BEFEE700BEFEE700BEFEE770470000F5
:102B40003F2A0008B52A0008FD2A000800BEFEE75B
:102B5000243B00080000002088000020243B0008DF
:102B60000000000000000000880000202401002078
:082B700000000000000000005D
:102B7800FEE7000008B503460C4A12685AB10B4A32
:102B88001068033323F003030344094A934206D829
:102B9800064A136008BD054A06491160EFE700F0D0
:102BA800CFFA0C2303604FF0FF30F3E78C000020CE
:102BB800004C00202401002001230360014B0B601E
:102BC800704700BF040000200FB400B583B004AB09
:102BD80053F8042B01938021064800F0E3FA0028FB
:102BE80003DD0146034800F037F803B05DF804EB55
:102BF80004B07047940000202DE9F04385B00446E6
:102C08000F4643560BB10E461EE0042528462146C2
:102C1800ABBE0446384605B0BDE8F08314F9011B85
:102C280004AA1A4402F8101C0133AB42F6D304AAD2
:102C38001344002203F8102C4FF00408E9464046DC
:102C48004946ABBE8046761B002EE3D03546102E93
:102C580028BF10250023E8E708B5FFF7CDFF08BD1A
:102C680008B500F0FDF8024A024B9A6008BD00BFA3
:102C78000028000800ED00E008B500F019F908BDCB
:102C8800F8B504460D4617461E462748FFF79CFF31
:102C980021682648FFF798FF61682548FFF794FFE9
:102CA800A1682448FFF790FFE1682348FFF78CFFED
:102CB80021692248FFF788FF61692148FFF784FFEF
:102CC800A1692048FFF780FFE1691F48FFF77CFFF3
:102CD8001E48FFF779FF29461D48FFF775FF1D4C71
:102CE800E16A1D48FFF770FF216B1C48FFF76CFF76
:102CF800E16B1B48FFF768FF15F0800F0AD115F448
:102D0800004F0CD11748FFF75FFF06991648FFF7E9
:102D18005BFFF8BD39461548FFF756FFEFE7314628
:102D28001348FFF751FFEDE7A8390008B839000844
:102D3800C8390008D8390008E8390008F839000807
:102D4800083A0008183A0008283A0008383A0008F3
:102D5800443A000800ED00E0543A0008643A0008DC
:102D6800743A0008A43A0008AC3A0008843A00080B
:102D7800943A000883691A888A4201D00020704773
:102D88000268033A012A03D802338361012070479D
:102D98000020704782B00023019300932C4A1368E7
:102DA80043F4803313602A4B1B6803F40033009309
:102DB800019B01330193009B1BB9019BB3F5A06FE5
:102DC800F1D1234B1B6813F4003F06D00123009375
:102DD800009B012B04D002B0704700230093F7E753
:102DE8001C4B1A6842F010021A601A6822F003029B
:102DF8001A601A6842F002021A60A3F580535A68F2
:102E08005A605A685A605A6842F480625A605A682E
:102E180022F47C125A605A6842F4E8125A601A681E
:102E280042F080721A600A4B1B6813F0007FFAD0D8
:102E3800074B5A6822F003025A605A6842F00202AD
:102E48005A60034B5B6803F00C03082BF9D1C2E707
:102E5800001002400020024008B5FFF79BFF08BDA4
:102E680008B5104B1A6842F001021A6059680E4AF8
:102E78000A405A601A6822F0847222F480321A607A
:102E88001A6822F480221A605A6822F4FE025A60F4
:102E98004FF41F029A60FFF7DFFF044B4FF0006208
:102EA8009A6008BD001002400000FFF800ED00E045
:102EB8001F4B5B6803F00C03042B15D0082B17D0AD
:102EC8001BB11C4B1C4A1A6002E01A4B1A4A1A60C2
:102ED800174B5B68C3F30313184AD35CDAB215497E
:102EE8000B68D3400B607047124B134A1A60EFE728
:102EF8000F4A53685268C3F38343023312F4803F86
:102F08000AD00B4A526812F4003F0BD00C4A02FB5D
:102F180003F3084A1360DBE7094A02FB03F3054A97
:102F28001360D5E7044A02FB03F3024A1360CFE7B4
:102F3800001002401C00002000127A000C00002043
:102F480000093D0010B4012824D018B1022841D04E
:102F580010BC7047072910D90F29F9D8A1F1080426
:102F6800E4B2A4000F23A3402A48016821EA03031E
:102F780002FA04F119430160EAE789000F2303FA12
:102F880001F0254C236823EA000302FA01F11943F2
:102F98002160DDE7072910D90F29D9D8A1F1080048
:102FA800C0B280000F2383401C4C216821EA030330
:102FB80002FA00F119432160CAE789000F2303FAD6
:102FC80001F0174C236823EA000302FA01F11943C0
:102FD8002160BDE7072910D90F29B9D8A1F1080345
:102FE800DBB29B000F2098400E4C216821EA0000BC
:102FF80002FA03F101432160AAE789000F2303FACB
:1030080001F0094C236823EA000302FA01F119438D
:1030180021609DE70408014000080140040C0140BC
:10302800000C01400410014000100140012813D099
:1030380010B102281FD07047012A07D0002A2FD1CB
:10304800012303FA01F1174B19607047012303FAB2
:1030580001F1154B19607047012A06D002BB012304
:1030680003FA01F1114B19607047012303FA01F1CA
:103078000F4B19607047012A09D062B9012303FA7E
:1030880001F20C48036823EA0203036003E001230A
:103098008B40094A1360012303FA01F1074B1960B9
:1030A800704700BF1408014010080140140C01408B
:1030B800100C01400C100140101001401410014088
:1030C800024B4FF480321A60704700BF0010024074
:1030D8001F291CD801280BD010B1022810D0704726
:1030E800012303FA01F10A4A13680B43136070477E
:1030F800012303FA01F1074A13680B431360704771
:10310800012303FA01F1044A13680B431360704763
:10311800141002401C1002401810024008B5FFF7B6
:10312800CFFF02210846FFF7D3FF022200210846FD
:10313800FFF708FF012200210846FFF777FFFEE7A7
:10314800014B1868704700BF2000002030B5141EDE
:1031580005469BB0184605DA8B234FF0FF302B60ED
:103168001BB030BD4FF40273ADF80C300CBF2346D2
:1031780004F1FF33029305934FF6FF730091049116
:10318800ADF80E3002461E9B6946284600F072F8DC
:10319800431CBCBF8B232B60002CE1D00022009B7A
:1031A8001A70DDE707B5009313460A46014603483F
:1031B8000068FFF7CBFF03B05DF804FB2000002098
:1031C8002DE9F0478E6882469E420C469046994605
:1031D80037D88A8912F4906F31D00223256809699B
:1031E8006F1A656905EB450595FBF3F509F10103D0
:1031F8003B449D4238BF1D46530530D5294600F053
:1032080035FB064650B90C234FF0FF30CAF80030A2
:10321800A38943F04003A381BDE8F0873A462169BA
:1032280000F0B4FAA38923F4906343F08003A381E8
:1032380026613E4426604E466561ED1BA5604E45FD
:1032480000D94E4632464146206800F0AAFAA368E3
:1032580000209B1BA36023681E442660DCE72A46E7
:1032680000F05EFB06460028E2D12169504600F0D6
:10327800B1FAC8E72DE9F04F9DB003938B898046DA
:103288001D060C4616460FD50B696BB9402100F098
:10329800EDFA2060206128B90C23C8F800304FF0FF
:1032A800FF30C7E0402363610023099320238DF892
:1032B800293030234FF0010B8DF82A3037463D4630
:1032C80015F8013B0BB1252B3ED1B7EB060A0BD005
:1032D8005346324621464046FFF772FF013000F060
:1032E800A480099B534409933B78002B00F09D80F0
:1032F80000234FF0FF32CDE90523049307938DF89F
:1033080053301A932F46052217F8011B4F4800F037
:103318002FFA049BD0B9D90644BF20228DF8532038
:103328001A0744BF2B228DF853202A782A2A15D051
:103338002F4600200A25079A394611F8013B303BF1
:10334800092B4DD9B8B10FE02F46B8E73F4A3D46A3
:10335800801A0BFA00F018430490D3E7039A111D62
:1033680012680391002A01DB079204E0524243F0FD
:103378000203079204933B782E2B0CD17B782A2BDF
:1033880033D1039B02371A1D1B680392002BB8BF69
:103398004FF0FF3305932E4D03223978284600F06D
:1033A800E7F938B14023401B03FA00F0049B0137CA
:1033B800034304933978062226487E1C8DF828108A
:1033C80000F0D6F9002838D0234B13BB039B0733F2
:1033D80023F0070308330393099B4B4409936DE7D4
:1033E80005FB023201200F46A6E700230A251946ED
:1033F80001370593384610F8012B303A092A03D9CA
:10340800002BC8D00591C6E705FB0121012307461B
:10341800F0E703AB00932246104B04A94046AFF3F4
:103428000080B0F1FF3F8146D6D1A3895B063FF506
:1034380036AF09981DB0BDE8F08F03AB0093224664
:10344800064B04A9404600F081F8EAE7F03A000884
:10345800F63A0008FA3A000800000000C9310008EE
:103468002DE9F04791461F468A680B690646934244
:10347800B8BF1346C9F8003091F843200C46DDF870
:10348800208012B10133C9F800302368990642BF81
:10349800D9F800300233C9F80030256815F0060560
:1034A80007D104F1190AE368D9F800209B1AAB4246
:1034B80029DC94F843302268003318BF01239206B0
:1034C8002ED404F1430239463046C047013021D09A
:1034D8002368E56803F00603042B18BF0025D9F814
:1034E80000204FF0000908BFAD1AA368226908BF81
:1034F80025EAE5759342C4BF9B1AED181A344D4569
:103508001AD1002008E00123524639463046C04708
:10351800013003D14FF0FF30BDE8F0870135C2E735
:103528003020E11881F843005A1C94F845102244D1
:10353800023382F84310C4E7012322463946304655
:10354800C0470130E6D009F10109D8E72DE9F04379
:1035580001F1430C0C46097E85B06E2917460646D4
:1035680098460C9A00F0B38022D8632936D00AD83E
:10357800002900F0B980582900F0838004F1420541
:1035880084F8421032E0642901D06929F6D1206814
:103598001368050603F104012AD51B681160002B86
:1035A80003DA2D225B4284F843206F480A2239E06F
:1035B800732900F09D8008D86F2920D07029DDD1AB
:1035C800236843F02003236003E0752917D0782986
:1035D800D4D17823654884F8453055E0136804F160
:1035E8004205191D1B68116084F8423001238CE0E4
:1035F8001B6810F0400F116018BF1BB2CFE71368AB
:103608002568181D1060280601D51B6802E06806A9
:10361800FBD51B886F2914BF0A22082252480021B3
:1036280084F843106568002DA560C0F29580216874
:1036380021F004012160002B3DD1002D40F08E8047
:103648006546082A0BD12368DB0708D52369626819
:103658009A42DEBF302305F8013C05F1FF35ACEB9B
:1036680005032361CDF800803B4603AA2146304676
:10367800FFF7F6FE01304DD14FF0FF3005B0BDE841
:10368800F083394884F84510136821681D1D1B68AC
:1036980015600A060BD5CA0744BF41F02001216016
:1036A8001BB9226822F0200222601022B7E74D06DB
:1036B80048BF9BB2EFE76546B3FBF2F102FB11335B
:1036C800C35C05F8013D0B460029F5D1B9E713683D
:1036D8002568181D6169106028061B6801D51960E6
:1036E80002E06A06FBD51980002365462361B9E725
:1036F8001368191D11601D6862680021284600F0D2
:1037080037F808B1401B606063682361002384F8C0
:103718004330A7E723692A4639463046C047013077
:10372800AAD023689B0713D4E068039B9842B8BFCC
:103738001846A3E701234A4639463046C0470130B8
:103748009AD00135E368039A9B1AAB42F2DCEBE7A7
:10375800002504F11909F5E7002BACD1037804F131
:10376800420584F842306CE7013B0008123B000830
:1037780010B5C9B202449042034601D1002303E0C8
:103788001C7801308C42F6D1184610BD10B5431E86
:103798000A44914200D110BD11F8014B03F8014FC2
:1037A800F7E7884210B501EB020307D8421E994299
:1037B8000AD011F8014B02F8014FF8E78342F5D916
:1037C8008118D21AD34200D110BD13F8014D01F867
:1037D800014DF7E738B50546002943D051F8043CB8
:1037E8000C1F002BB8BFE41800F0D0F81E4A13686D
:1037F800104633B9636014602846BDE8384000F0CD
:10380800C6B8A3420BD921686218934201BF1A684F
:103818005B685218226063600460EDE713465A68DB
:103828000AB1A242FAD919685818A0420BD12068E7
:103838000144581882421960DED110685268014468
:1038480019605A60D8E702D90C232B60D4E72068A6
:1038580021188A4201BF1168526809182160626004
:103868005C60C9E738BD00BF1401002070B5CD1CED
:1038780025F0030508350C2D38BF0C25002D06460C
:1038880001DBA94203D90C233360002070BD00F08E
:103898007DF8214A1468214691B9204C23681BB948
:1038A800304600F063F820602946304600F05EF8A4
:1038B800431C24D10C233046336000F068F8E4E759
:1038C8000B685B1B18D40B2B0FD90B60CC18CD5091
:1038D800304600F05CF804F10B00231D20F00700CF
:1038E800C31AD3D05A42E250D0E74B688C4216BF75
:1038F800636013600C46EBE70C464968CCE7C41CD0
:1039080024F00304A04205D0211A304600F02EF816
:103918000130CFD02560DBE714010020180100201A
:10392800F8B5074614460E4621B9BDE8F8401146D9
:10393800FFF79CBF22B9FFF74DFF25462846F8BD83
:1039480000F026F8A0420FD221463846FFF78EFF36
:1039580005460028F2D031462246FFF717FF3146C8
:103968003846FFF737FFE9E73546E7E738B500237C
:10397800054C054608462360FFF7FCF8431C02D1B6
:10398800236803B12B6038BD1C01002070477047C5
:1039980051F8043C181F002BBCBF0B58C0187047C7
:1039A800537461636B206672616D653A0A000000AA
:1039B800205230203D2020253038580A00000000D1
:1039C800205231203D2020253038580A00000000C0
:1039D800205232203D2020253038580A00000000AF
:1039E800205233203D2020253038580A000000009E
:1039F80020523132203D20253038580A000000007E
:103A0800204C52203D2020253038580A0000000064
:103A1800205043203D2020253038580A000000005F
:103A280020505352203D20253038580A000000000D
:103A38004653522F4641523A0A000000204346534B
:103A480052203D2020253038580A0000204846538F
:103A580052203D2020253038580A00002044465383
:103A680052203D2020253038580A00002041465376
:103A780052203D2020253038580A0000204D4D4660
:103A88004152203D20253038580A00002042464146
:103A980052203D2020253038580A00004D697363B4
:103AA8000A000000204C522F4558435F5245545598
:103AB800524E3D20253038580A0000005B4861729C
:103AC800644661756C745D0A000000005B427573A2
:103AD8004661756C745D0A005B5573616765466184
:103AE800756C745D0A000000232D302B2000686C73
:103AF8004C00656667454647003031323334353609
:103B08003738394142434445460030313233343541
:0B3B180036373839616263646566006F
:103B240078563412900000200000000000000000CD
:103B340000000000010203040607080900A24A0469
:103B4400240000200000000000000000000000002D
:103B54000000000000000000000000000000000061
:103B64000000000000000000000000000000000051
:103B74000000000000000000000000000000000041
:103B84000000000000000000000000000000000031
:103B94000000000000000000000000000000000021
:083BA400000000003254769885
:040000050800290DB9
:00000001FF
*
:020000040800F2
:109400000050002021960008279600082B9600089F
:109410009D960008A1960008E9960008000000004B
:10942000000000000000000000000000319700086C
:109430003597000800000000399700083D970008A4
:109440004D9700084D9700084D9700084D9700086C
:109450004D9700084D9700084D9700084D9700085C
:109460004D9700084D9700084D9700084D9700084C
:109470004D9700084D9700084D9700084D9700083C
:109480004D9700084D9700084D9700084D9700082C
:109490004D9700084D9700084D9700084D9700081C
:1094A0004D9700084D9700084D9700084D9700080C
:1094B0004D9700084D9700084D9700084D970008FC
:1094C0004D9700084D9700084D9700084D970008EC
:1094D0004D9700084D9700084D9700084D970008DC
:1094E0004D9700084D9700084D97000800000000B8
:1094F000000000000000000000000000000000006C
:1095000000000000000000005FF808F100B583B023
:1095100000F0AAF9304B314A1360314A1360314BE5
:10952000314A32498B4204D2116819600433043243
:10953000F7E72A4B1A682E4B9A4200D0FEE7284BD9
:109540001A682C4B9A42F9D1234B2B4A13602B4AB1
:1095500013602B4B02E000221A600433294A934225
:10956000F9D3254B1B6813B9244B1B6803B1FEE7E5
:1095700000F086F9694601A800F022F9224C234B3D
:10958000E41AA4100025AC4214DC214C214BE41A4F
:10959000A4100025AC4213DC0099019800F0C2FB36
:1095A00005461D4C1D4BE41AA410002C0EDC284669
:1095B00000F0E2F8154B53F8253098470135E2E703
:1095C000144B53F8253098470135E3E7013C134B22
:1095D00053F824309847E8E7BABADECA0000002002
:1095E000840000200000002024A70008880000203C
:1095F00078563412325476988800002020010020DA
:10960000880000202401002078970008789700083F
:1096100078970008789700087897000878970008EE
:1096200008B5FFF773FF00BEFEE71EF0040F0CBF86
:10963000EFF30880EFF309807146414A10472DE9A6
:10964000F04182B004468846124B5E6B9F6B9D6A68
:109650001B6B13F0020F03D00E4BDB6A002B0CDBED
:109660000D4800F0B5F8CDF800803B46324629465B
:10967000204600F009F900BEFEE74BF6AB6100F0B2
:109680007DF90028ECD0034B4FF00042DA6202B0C3
:10969000BDE8F08100ED00E0C4A6000800BEFEE7D2
:1096A0001EF0040F0CBFEFF30880EFF30980714642
:1096B000244A10472DE9F04182B004468846084B01
:1096C0005E6B9F6B9D6A074800F082F8CDF80080C2
:1096D0003B4632462946204600F0D6F800BEFEE75B
:1096E00000ED00E0D4A600081EF0040F0CBFEFF35D
:1096F0000880EFF309807146134A10472DE9F041C5
:1097000082B004468846084B5E6B9F6B9D6A074893
:1097100000F05EF8CDF800803B46324629462046F0
:1097200000F0B2F800BEFEE700ED00E0E0A60008A1
:1097300000BEFEE700BEFEE700BEFEE77047000089
:109740003F960008B5960008FD96000800BEFEE7AB
:1097500024A70008000000208800002024A700089B
:10976000000000000000000088000020240100200C
:089770000000000000000000F1
:10977800FEE7000008B503460C4A12685AB10B4AC6
:109788001068033323F003030344094A934206D8BD
:10979800064A136008BD054A06491160EFE700F064
:1097A800CFFA0C2303604FF0FF30F3E78C00002062
:1097B800004C00202401002001230360014B0B60B2
:1097C800704700BF040000200FB400B583B004AB9D
:1097D80053F8042B01938021064800F0E3FA00288F
:1097E80003DD0146034800F037F803B05DF804EBE9
:1097F80004B07047940000202DE9F04385B004467A
:109808000F4643560BB10E461EE004252846214656
:10981800ABBE0446384605B0BDE8F08314F9011B19
:1098280004AA1A4402F8101C0133AB42F6D304AA66
:109838001344002203F8102C4FF00408E946404670
:109848004946ABBE8046761B002EE3D03546102E27
:1098580028BF10250023E8E708B5FFF7CDFF08BDAE
:1098680008B500F0FDF8024A024B9A6008BD00BF37
:109878000094000800ED00E008B500F019F908BDF3
:10988800F8B504460D4617461E462748FFF79CFFC5
:1098980021682648FFF798FF61682548FFF794FF7D
:1098A800A1682448FFF790FFE1682348FFF78CFF81
:1098B80021692248FFF788FF61692148FFF784FF83
:1098C800A1692048FFF780FFE1691F48FFF77CFF87
:1098D8001E48FFF779FF29461D48FFF775FF1D4C05
:1098E800E16A1D48FFF770FF216B1C48FFF76CFF0A
:1098F800E16B1B48FFF768FF15F0800F0AD115F4DC
:10990800004F0CD11748FFF75FFF06991648FFF77D
:109918005BFFF8BD39461548FFF756FFEFE73146BC
:109928001348FFF751FFEDE7A8A50008B8A5000800
:10993800C8A50008D8A50008E8A50008F8A50008EB
:1099480008A6000818A6000828A6000838A60008D7
:1099580044A6000800ED00E054A6000864A600082C
:1099680074A60008A4A60008ACA6000884A60008EF
:1099780094A6000883691A888A4201D0002070479B
:109988000268033A012A03D8023383610120704731
:109998000020704782B00023019300932C4A13687B
:1099A80043F4803313602A4B1B6803F4003300939D
:1099B800019B01330193009B1BB9019BB3F5A06F79
:1099C800F1D1234B1B6813F4003F06D00123009309
:1099D800009B012B04D002B0704700230093F7E7E7
:1099E8001C4B1A6842F010021A601A6822F003022F
:1099F8001A601A6842F002021A60A3F580535A6886
:109A08005A605A685A605A6842F480625A605A68C2
:109A180022F47C125A605A6842F4E8125A601A68B2
:109A280042F080721A600A4B1B6813F0007FFAD06C
:109A3800074B5A6822F003025A605A6842F0020241
:109A48005A60034B5B6803F00C03082BF9D1C2E79B
:109A5800001002400020024008B5FFF79BFF08BD38
:109A680008B5104B1A6842F001021A6059680E4A8C
:109A78000A405A601A6822F0847222F480321A600E
:109A88001A6822F480221A605A6822F4FE025A6088
:109A98004FF41F029A60FFF7DFFF044B4FF000629C
:109AA8009A6008BD001002400000FFF800ED00E0D9
:109AB8001F4B5B6803F00C03042B15D0082B17D041
:109AC8001BB11C4B1C4A1A6002E01A4B1A4A1A6056
:109AD800174B5B68C3F30313184AD35CDAB2154912
:109AE8000B68D3400B607047124B134A1A60EFE7BC
:109AF8000F4A53685268C3F38343023312F4803F1A
:109B08000AD00B4A526812F4003F0BD00C4A02FBF1
:109B180003F3084A1360DBE7094A02FB03F3054A2B
:109B28001360D5E7044A02FB03F3024A1360CFE748
:109B3800001002401C00002000127A000C000020D7
:109B480000093D0010B4012824D018B1022841D0E2
:109B580010BC7047072910D90F29F9D8A1F10804BA
:109B6800E4B2A4000F23A3402A48016821EA0303B2
:109B780002FA04F119430160EAE789000F2303FAA6
:109B880001F0254C236823EA000302FA01F1194386
:109B98002160DDE7072910D90F29D9D8A1F10800DC
:109BA800C0B280000F2383401C4C216821EA0303C4
:109BB80002FA00F119432160CAE789000F2303FA6A
:109BC80001F0174C236823EA000302FA01F1194354
:109BD8002160BDE7072910D90F29B9D8A1F10803D9
:109BE800DBB29B000F2098400E4C216821EA000050
:109BF80002FA03F101432160AAE789000F2303FA5F
:109C080001F0094C236823EA000302FA01F1194321
:109C180021609DE70408014000080140040C014050
:109C2800000C01400410014000100140012813D02D
:109C380010B102281FD07047012A07D0002A2FD15F
:109C4800012303FA01F1174B19607047012303FA46
:109C580001F1154B19607047012A06D002BB012398
:109C680003FA01F1114B19607047012303FA01F15E
:109C78000F4B19607047012A09D062B9012303FA12
:109C880001F20C48036823EA0203036003E001239E
:109C98008B40094A1360012303FA01F1074B19604D
:109CA800704700BF1408014010080140140C01401F
:109CB800100C01400C10014010100140141001401C
:109CC800024B4FF480321A60704700BF0010024008
:109CD8001F291CD801280BD010B1022810D07047BA
:109CE800012303FA01F10A4A13680B431360704712
:109CF800012303FA01F1074A13680B431360704705
:109D0800012303FA01F1044A13680B4313607047F7
:109D1800141002401C1002401810024008B5FFF74A
:109D2800CFFF02210846FFF7D3FF02220021084691
:109D3800FFF708FF012200210846FFF777FFFEE73B
:109D4800014B1868704700BF2000002030B5141E72
:109D580005469BB0184605DA8B234FF0FF302B6081
:109D68001BB030BD4FF40273ADF80C300CBF234666
:109D780004F1FF33029305934FF6FF7300910491AA
:109D8800ADF80E3002461E9B6946284600F072F870
:109D9800431CBCBF8B232B60002CE1D00022009B0E
:109DA8001A70DDE707B5009313460A4601460348D3
:109DB8000068FFF7CBFF03B05DF804FB200000202C
:109DC8002DE9F0478E6882469E420C469046994699
:109DD80037D88A8912F4906F31D00223256809692F
:109DE8006F1A656905EB450595FBF3F509F1010364
:109DF8003B449D4238BF1D46530530D5294600F0E7
:109E080035FB064650B90C234FF0FF30CAF8003036
:109E1800A38943F04003A381BDE8F0873A4621694E
:109E280000F0B4FAA38923F4906343F08003A3817C
:109E380026613E4426604E466561ED1BA5604E4591
:109E480000D94E4632464146206800F0AAFAA36877
:109E580000209B1BA36023681E442660DCE72A467B
:109E680000F05EFB06460028E2D12169504600F06A
:109E7800B1FAC8E72DE9F04F9DB003938B8980466E
:109E88001D060C4616460FD50B696BB9402100F02C
:109E9800EDFA2060206128B90C23C8F800304FF093
:109EA800FF30C7E0402363610023099320238DF826
:109EB800293030234FF0010B8DF82A3037463D46C4
:109EC80015F8013B0BB1252B3ED1B7EB060A0BD099
:109ED8005346324621464046FFF772FF013000F0F4
:109EE800A480099B534409933B78002B00F09D8084
:109EF80000234FF0FF32CDE90523049307938DF833
:109F080053301A932F46052217F8011B4F4800F0CB
:109F18002FFA049BD0B9D90644BF20228DF85320CC
:109F28001A0744BF2B228DF853202A782A2A15D0E5
:109F38002F4600200A25079A394611F8013B303B85
:109F4800092B4DD9B8B10FE02F46B8E73F4A3D4637
:109F5800801A0BFA00F018430490D3E7039A111DF6
:109F680012680391002A01DB079204E0524243F091
:109F78000203079204933B782E2B0CD17B782A2B73
:109F880033D1039B02371A1D1B680392002BB8BFFD
:109F98004FF0FF3305932E4D03223978284600F001
:109FA800E7F938B14023401B03FA00F0049B01375E
:109FB800034304933978062226487E1C8DF828101E
:109FC80000F0D6F9002838D0234B13BB039B073386
:109FD80023F0070308330393099B4B4409936DE768
:109FE80005FB023201200F46A6E700230A25194681
:109FF80001370593384610F8012B303A092A03D95E
:10A00800002BC8D00591C6E705FB012101230746AF
:10A01800F0E703AB00932246104B04A94046AFF388
:10A028000080B0F1FF3F8146D6D1A3895B063FF59A
:10A0380036AF09981DB0BDE8F08F03AB00932246F8
:10A04800064B04A9404600F081F8EAE7F0A60008AC
:10A05800F6A60008FAA6000800000000C99D00083E
:10A068002DE9F04791461F468A680B6906469342D8
:10A07800B8BF1346C9F8003091F843200C46DDF804
:10A08800208012B10133C9F800302368990642BF15
:10A09800D9F800300233C9F80030256815F00605F4
:10A0A80007D104F1190AE368D9F800209B1AAB42DA
:10A0B80029DC94F843302268003318BF0123920644
:10A0C8002ED404F1430239463046C047013021D02E
:10A0D8002368E56803F00603042B18BF0025D9F8A8
:10A0E80000204FF0000908BFAD1AA368226908BF15
:10A0F80025EAE5759342C4BF9B1AED181A344D45FD
:10A108001AD1002008E00123524639463046C0479C
:10A11800013003D14FF0FF30BDE8F0870135C2E7C9
:10A128003020E11881F843005A1C94F84510224465
:10A13800023382F84310C4E70123224639463046E9
:10A14800C0470130E6D009F10109D8E72DE9F0430D
:10A1580001F1430C0C46097E85B06E291746064668
:10A1680098460C9A00F0B38022D8632936D00AD8D2
:10A17800002900F0B980582900F0838004F14205D5
:10A1880084F8421032E0642901D06929F6D12068A8
:10A198001368050603F104012AD51B681160002B1A
:10A1A80003DA2D225B4284F843206F480A2239E003
:10A1B800732900F09D8008D86F2920D07029DDD13F
:10A1C800236843F02003236003E0752917D078291A
:10A1D800D4D17823654884F8453055E0136804F1F4
:10A1E8004205191D1B68116084F8423001238CE078
:10A1F8001B6810F0400F116018BF1BB2CFE713683F
:10A208002568181D1060280601D51B6802E068063D
:10A21800FBD51B886F2914BF0A2208225248002147
:10A2280084F843106568002DA560C0F29580216808
:10A2380021F004012160002B3DD1002D40F08E80DB
:10A248006546082A0BD12368DB0708D523696268AD
:10A258009A42DEBF302305F8013C05F1FF35ACEB2F
:10A2680005032361CDF800803B4603AA214630460A
:10A27800FFF7F6FE01304DD14FF0FF3005B0BDE8D5
:10A28800F083394884F84510136821681D1D1B6840
:10A2980015600A060BD5CA0744BF41F020012160AA
:10A2A8001BB9226822F0200222601022B7E74D066F
:10A2B80048BF9BB2EFE76546B3FBF2F102FB1133EF
:10A2C800C35C05F8013D0B460029F5D1B9E71368D1
:10A2D8002568181D6169106028061B6801D519607A
:10A2E80002E06A06FBD51980002365462361B9E7B9
:10A2F8001368191D11601D6862680021284600F066
:10A3080037F808B1401B606063682361002384F854
:10A318004330A7E723692A4639463046C04701300B
:10A32800AAD023689B0713D4E068039B9842B8BF60
:10A338001846A3E701234A4639463046C04701304C
:10A348009AD00135E368039A9B1AAB42F2DCEBE73B
:10A35800002504F11909F5E7002BACD1037804F1C5
:10A36800420584F842306CE701A7000812A70008EC
:10A3780010B5C9B202449042034601D1002303E05C
:10A388001C7801308C42F6D1184610BD10B5431E1A
:10A398000A44914200D110BD11F8014B03F8014F56
:10A3A800F7E7884210B501EB020307D8421E99422D
:10A3B8000AD011F8014B02F8014FF8E78342F5D9AA
:10A3C8008118D21AD34200D110BD13F8014D01F8FB
:10A3D800014DF7E738B50546002943D051F8043C4C
:10A3E8000C1F002BB8BFE41800F0D0F81E4A136801
:10A3F800104633B9636014602846BDE8384000F061
:10A40800C6B8A3420BD921686218934201BF1A68E3
:10A418005B685218226063600460EDE713465A686F
:10A428000AB1A242FAD919685818A0420BD120687B
:10A438000144581882421960DED1106852680144FC
:10A4480019605A60D8E702D90C232B60D4E720683A
:10A4580021188A4201BF1168526809182160626098
:10A468005C60C9E738BD00BF1401002070B5CD1C81
:10A4780025F0030508350C2D38BF0C25002D0646A0
:10A4880001DBA94203D90C233360002070BD00F022
:10A498007DF8214A1468214691B9204C23681BB9DC
:10A4A800304600F063F820602946304600F05EF838
:10A4B800431C24D10C233046336000F068F8E4E7ED
:10A4C8000B685B1B18D40B2B0FD90B60CC18CD5025
:10A4D800304600F05CF804F10B00231D20F0070063
:10A4E800C31AD3D05A42E250D0E74B688C4216BF09
:10A4F800636013600C46EBE70C464968CCE7C41C64
:10A5080024F00304A04205D0211A304600F02EF8AA
:10A518000130CFD02560DBE71401002018010020AE
:10A52800F8B5074614460E4621B9BDE8F84011466D
:10A53800FFF79CBF22B9FFF74DFF25462846F8BD17
:10A5480000F026F8A0420FD221463846FFF78EFFCA
:10A5580005460028F2D031462246FFF717FF31465C
:10A568003846FFF737FFE9E73546E7E738B5002310
:10A57800054C054608462360FFF7FCF8431C02D14A
:10A58800236803B12B6038BD1C0100207047704759
:10A5980051F8043C181F002BBCBF0B58C01870475B
:10A5A800537461636B206672616D653A0A0000003E
:10A5B800205230203D2020253038580A0000000065
:10A5C800205231203D2020253038580A0000000054
:10A5D800205232203D2020253038580A0000000043
:10A5E800205233203D2020253038580A0000000032
:10A5F80020523132203D20253038580A0000000012
:10A60800204C52203D2020253038580A00000000F8
:10A61800205043203D2020253038580A00000000F3
:10A6280020505352203D20253038580A00000000A1
:10A638004653522F4641523A0A00000020434653DF
:10A6480052203D2020253038580A00002048465323
:10A6580052203D2020253038580A00002044465317
:10A6680052203D2020253038580A0000204146530A
:10A6780052203D2020253038580A0000204D4D46F4
:10A688004152203D20253038580A000020424641DA
:10A6980052203D2020253038580A00004D69736348
:10A6A8000A000000204C522F4558435F524554552C
:10A6B800524E3D20253038580A0000005B48617230
:10A6C800644661756C745D0A000000005B42757336
:10A6D8004661756C745D0A005B5573616765466118
:10A6E800756C745D0A000000232D302B2000686C07
:10A6F8004C0065666745464700303132333435369D
:10A7080037383941424344454600303132333435D5
:0BA71800363738396162636465660003
:10A724007856341290000020000000000000000061
:10A7340000000000010203040607080900A24A04FD
:10A7440024000020000000000000000000000000C1
:10A7540000000000000000000000000000000000F5
:10A7640000000000000000000000000000000000E5
:10A7740000000000000000000000000000000000D5
:10A7840000000000000000000000000000000000C5
:10A7940000000000000000000000000000000000B5
:08A7A400000000003254769819
:040000050800950D4D
:00000001FF